:1000000000000320D9040000250500002905000098
:10001000210500002105000021050000000000006E
:100020000000000000000000000000002D0500009E
:100030002105000000000000851C0000491C000094
:10004000390500003D0500004105000045050000A0
:10005000490500004D050000510500005505000050
:10006000590500005D050000610500006505000000
:10007000690500006D0500007105000075050000B0
:100080007905000021050000210500002105000080
:1000900021050000210500002105000021050000C8
:1000A0007D05000081050000850500008905000030
:1000B0008D050000910500009505000099050000E0
:1000C0009D050000A1050000A5050000A905000090
:1000D000AD050000B1050000B505000021050000D8
:1000E0002105000021050000210500002105000078
:1000F0002105000021050000210500002105000068
:100100002105000021050000210500002105000057
:100110002105000021050000210500002105000047
:100120002105000021050000210500002105000037
:1001300021050000A5130000210500002105000095
:1001400021050000B9050000BD050000C105000043
:10015000C5050000C90500002105000021050000BB
:100160002105000021050000CD050000D10500009B
:10017000D5050000D9050000DD050000E1050000FF
:10018000E5050000E9050000BD2A00005D2A000029
:100190007D2A00009D2A00002105000021050000A5
:1001A00021050000210500002105000021050000B7
:1001B00021050000210500002105000021050000A7
:1001C0002105000021050000210500002105000097
:1001D0002105000021050000210500002105000087
:1003F000210500002105000021050000FFFFFFFF8F
:10040000FFFFFFFFFFFFFFFFFFFFFFFFFEFFFFFFFD
:1004100010B5054C237833B9044B13B10448AFF33E
:1004200000800123237010BD8000FF1F000000002A
:100430007C44000008B5064B1BB106480649AFF3E3
:1004400000800648036813B1054B03B1984708BD07
:10045000000000007C4400008400FF1F7800FF1FA4
:1004600000000000154B002B08BF134B9D46A3F561
:10047000803A00218B460F461348144A121A03F0A3
:1004800083F80F4B002B00D098470E4B002B00D069
:1004900098470020002104000D000D48002802D0DC
:1004A0000C48AFF3008003F049F82000290000F069
:1004B0008FFF03F02FF800BF0000080000000320AA
:1004C00000000000000000008000FF1F1414FF1F48
:1004D000000000000000000072B60A480A490160EE
:1004E0000A6882F30888094880470949094A0A4B83
:1004F0009A42BEBF51F8040B42F8040BF8E762B60B
:100500000648804708ED00E000000000D9340000F4
:10051000A44400000000FF1F7C00FF1F65040000D2
:10052000FFF7FEBF354800473548004735480047CC
:1005300035480047354800473548004735480047AB
:10054000354800473548004735480047354800479B
:10055000354800473548004735480047354800478B
:10056000354800473548004735480047354800477B
:10057000354800473548004735480047354800476B
:10058000354800473548004735480047354800475B
:10059000354800473548004735480047354800474B
:1005A000354800473548004735480047354800473B
:1005B000354800473548004735480047354800472B
:1005C000354800473548004735480047354800471B
:1005D0003548004734480047334800473248004711
:1005E000314800473048004730480047304800470E
:1005F0003048004730480047304800472505000094
:10060000290500002D050000851C0000491C000084
:100610001D2900003129000045290000592900004A
:100620006D2900008129000095290000A9290000FA
:10063000BD290000D1290000E5290000F9290000AA
:100640000D2A0000212A0000352A0000492A000056
:1006500021050000152C0000312C00000D270000A2
:1006600049270000692C0000AD2C00002105000086
:10067000493200002105000075320000210500000C
:10068000A132000021050000CD320000210500004C
:1006900085270000F9320000210500002533000005
:1006A000210500004D2C0000DD2A0000F12C000087
:1006B00021050000210500002105000021050000A2
:1006C0004BB942B9002908BF002802D04FF0FF31D2
:1006D000084600F03BB882B0EC462DE9005000F02F
:1006E0001DF8DDF804E002B00CBC70472DE9704342
:1006F000069E14461D468046894600F029F804FBF4
:1007000001F300FB0533A4FB00451D44B8EB0404D2
:1007100069EB0505C6E90045BDE870832DE9704326
:10072000069E1446804689461D4600F05DF900FB92
:1007300005F504FB0153A0FB04451D44B8EB04047C
:1007400069EB0505C6E90045BDE87083704700BF49
:1007500000292DE9F00FC0F29F800024002BC0F289
:100760009680154606460F46002B3ED18A4257D941
:10077000B2FA82F34BB1C3F1200201FA03F720FA77
:1007800002F29D40174300FA03F6290CB7FBF1F281
:10079000330C01FB127CA8B243EA0C4700FB02F3C6
:1007A000BB4209D97F1902F1FF3C80F00181BB42B5
:1007B00040F2FE80023A2F44FF1AB7FBF1F3B6B2C3
:1007C00001FB137146EA014100FB03F0884208D99E
:1007D000491903F1FF3780F0ED80884240F2EA804A
:1007E000023B43EA0242002303E08B420AD9002382
:1007F0001A461046194614B1404261EB4101BDE86A
:10080000F00F7047B3FA83F8B8F1000F40F084801E
:100810008B4202D3824200F2DE8000230122E8E70D
:1008200012B90123B3FBF2F5B5FA85F2002A39D1EA
:100830007F1B280C1FFA85FC0123B7FBF0F1320C5B
:1008400000FB117742EA07470CFB01F2BA4207D9D5
:100850007F1901F1FF3802D2BA4200F2C18041464D
:10086000BF1AB7FBF0F2B6B200FB127046EA0040C6
:100870000CFB02FC844507D9401902F1FF3702D274
:10088000844500F2AB803A4642EA0142B1E7E443D4
:10089000524263EB430364E7404261EB41014FF096
:1008A000FF345BE79540C2F1200327FA03F1280CDF
:1008B00026FA03F39740B1FBF0F81F433B0C00FB13
:1008C00018111FFA85FC43EA01410CFB08F38B4227
:1008D00006FA02F608D9491908F1FF3279D28B429B
:1008E00077D9A8F102082944C91AB1FBF0F3BFB2C5
:1008F00000FB131147EA01470CFB03F2BA4207D988
:100900007F1903F1FF3160D2BA425ED9023B2F4416
:10091000BF1A43EA084390E7C8F1200203FA08FC33
:1009200025FA02F343EA0C0C4FEA1C4921FA02F3C0
:1009300001FA08F720FA02F2B3FBF9F1174309FBB9
:1009400011333A0C1FFA8CFB42EA03430BFB01FA0A
:100950009A4505FA08F008D913EB0C0301F1FF32B0
:1009600035D29A4533D902396344CAEB0303B3FB4A
:10097000F9F209FB1233BFB247EA03470BFB02F956
:10098000B94508D917EB0C0702F1FF331BD2B94563
:1009900019D9023A674442EA0145A5FB0001C9EBB7
:1009A00007078F424FF000030AD305D02A4620E7FD
:1009B000624601E73B4614E706FA08F68642F5D29E
:1009C0006A1E002315E71A46E5E70B46A0E7114625
:1009D000CBE7904688E7434642460AE7023A53E7A8
:1009E00002392F443CE700BF2DE9F00F14460546BD
:1009F0000E46002B43D18A4253D9B2FA82F757B13F
:100A0000C7F1200620FA06F601FA07F302FA07F406
:100A10001E4300FA07F5210CB6FBF1F22B0C01FB8B
:100A20001267A0B243EA074600FB02F3B34209D9BA
:100A3000361902F1FF3780F0F680B34240F2F380BE
:100A4000023A2644F61AB6FBF1F3ADB201FB13618C
:100A500045EA014100FB03F0884208D9091903F176
:100A6000FF3680F0E280884240F2DF80023B43EABA
:100A70000242002310461946BDE8F00F70478B4232
:100A80004AD8B3FA83F6002E4DD18B4202D382426C
:100A900000F2D6800023012210461946BDE8F00F6F
:100AA000704712B90124B4FBF2F4B4FA84F2002ABC
:100AB0007CD1091B260CA7B20123B1FBF6F02A0C4E
:100AC00006FB101142EA014107FB00F28A4207D9F6
:100AD000091900F1FF3C02D28A4200F2C38060464D
:100AE000891AB1FBF6F2ADB206FB121145EA0145D7
:100AF00007FB02F7AF4208D92C1902F1FF3180F051
:100B00009680A74240F29380023A42EA00421046A1
:100B10001946BDE8F00F704700231A4610461946E3
:100B2000BDE8F00F7047C6F1200522FA05F4B34086
:100B30001C434FEA144821FA05F301FA06F720FA9C
:100B400005F5B3FBF8FC2F4308FB1C333D0C1FFAE3
:100B500084FA45EA03430AFB0CF9994502FA06FBBD
:100B600004D91B190CF1FF326DD39446C9EB030372
:100B7000B3FBF8F508FB1533BFB247EA03470AFB9E
:100B800005F8B84504D93F1905F1FF3361D31D4677
:100B900045EA0C4CACFB0B23C8EB07079F424FF018
:100BA000000549D345D062462B4663E79440C2F125
:100BB000200321FA03FC260C20FA03F301FA02F5C4
:100BC000BCFBF6F843EA05010B0C06FB18CCA7B2F8
:100BD00043EA0C4C07FB08F3634500FA02F509D918
:100BE0001CEB040C08F1FF323AD2634538D9A8F166
:100BF0000208A444C3EB0C0CBCFBF6F389B206FB61
:100C000013CC41EA0C4107FB03F28A4207D90919C8
:100C100003F1FF3022D28A4220D9023B2144891AB3
:100C200043EA084349E73A460CE733461FE70A46DA
:100C30006BE7B0409042B6D20CF1FF32002319E7C7
:100C40003346324616E799458FD9ACF1020C23445E
:100C50008CE7B8459BD9023D274499E70346DEE778
:100C60009046C7E7023821443AE700BF80B483B01A
:100C700000AF78600B46FB70FB78002B08D07B68D8
:100C8000DB78DBB243F00803DAB27B68DA7007E0A6
:100C90007B68DB78DBB223F00803DAB27B68DA70BA
:100CA0000C37BD465DF8047B704700BF80B483B04D
:100CB00000AF78600B46FB70FB78002B08D07B6898
:100CC000DB78DBB243F00403DAB27B68DA7007E06A
:100CD0007B68DB78DBB223F00403DAB27B68DA707E
:100CE0000C37BD465DF8047B704700BF80B588B007
:100CF00000AFF860B9603B601346FB711D4B1B7879
:100D0000002B01D0012330E01A4BFA791A70FB79DD
:100D1000012B01D0062B27D1FA68164B5A6007F138
:100D20001403184602F0BCF9BB687B61114B5A688A
:100D300007F11403104619463A6802F045F80D4BC6
:100D40005B6818460121FFF791FF0A4B5B68184664
:100D50000121FFF7ABFF074B074A9A60054B074A93
:100D6000DA6000BF002300E0042318462037BD46A8
:100D700080BD00BF9C00FF1F453100008531000091
:100D80000FB480B582B000AF0B4B1B78002B02D1A3
:100D90004FF0FF3309E007F114033B60074839695E
:100DA0003A6800F0D5F878607B6818460837BD4689
:100DB000BDE8804004B070479C00FF1FC10D0000DB
:100DC00080B582B000AF78600A4B1B78002B02D14F
:100DD0004FF0FF3309E0074B9B68064A51683A1D04
:100DE0000846114601229847012318460837BD4698
:100DF00080BD00BF9C00FF1F80B586B000AFB9600A
:100E00007A603B600346FB73BB687B610CE097F93B
:100E10000F203B6A104698473B681B685A1C3B688A
:100E20001A607B6901337B617A697B689A42EEDBE9
:100E30001837BD4680BD00BF80B48DB000AFF860EC
:100E4000B9607A603B600023FB61FB68BB61BB69F2
:100E50005A1CBA6100221A707B68002B36D0BB681E
:100E60001B68FB62FB6A002B07D1BB6930221A703A
:100E7000FB690133FB61FB6964E023E0FA6A3B68CC
:100E800092FBF3F37B617B693A6802FB03F3FA6A36
:100E9000D31ABB62BB6A002B06DABB6A3B623B6AB1
:100EA000C3F13003BB6202E0BB6A3033BB627B69D3
:100EB000FB62BB695A1CBA61BA6AD2B21A70FB698A
:100EC0000133FB61FB6A002BD8D13AE0BB681B6899
:100ED0007B627B6A002B07D1BB6930221A70FB69E9
:100EE0000133FB61FB692DE028E03B687A6AB2FBC5
:100EF000F3F33B613B683A6902FB03F37A6AD31A66
:100F00003B623B6A092B03D83B6A30333B620AE001
:100F100097F83830002B01D0412300E061233A6A72
:100F200013440A3B3B623B697B62BB695A1CBA6152
:100F30003A6AD2B21A70FB690133FB617B6A002BFB
:100F4000D3D1FB6918463437BD465DF8047B704742
:100F500080B59CB002AFF860B9607A6000233B6650
:100F60000023FB650023BB61002387F84A30002380
:100F70003B61BB687B6693E17B6C252B06D0FB68ED
:100F8000786C9847BB690133BB6186E1012387F820
:100F90004B3000237B650023BB651CE07B6E013377
:100FA0007B667B6E1B785BB27B647B6C2F2B0DDDCD
:100FB0007B6C392B0ADC7A6D13469B0013445B0073
:100FC0001A467B6C1344303B7B6504E07B6E013B2F
:100FD0007B660123BB65BB6D002BDFD006233B6521
:100FE0007B6E01337B667B6E1B785BB22E2B25D12B
:100FF00000233B650023BB651CE07B6E01337B66F1
:101000007B6E1B785BB27B647B6C2F2B0DDD7B6C66
:10101000392B0ADC3A6D13469B0013445B001A46D9
:101020007B6C1344303B3B6504E07B6E013B7B668D
:101030000123BB65BB6D002BDFD002E07B6E013B63
:101040007B667B6E01337B667B6E1B785BB27B6459
:101050007B6C642B1BD07B6C692B18D07B6C662B54
:1010600015D07B6C462B12D07B6C782B0FD07B6C11
:10107000582B0CD07B6C6F2B09D07B6C622B06D06D
:101080007B6C702B03D07B6C752B40F0C5807B6C28
:10109000642B02D07B6C692B17D17B681A1D7A6098
:1010A0001B687B6107F11C0207F1140397F84B10D2
:1010B00000911046194601220A23FFF7BDFEF8658C
:1010C00007F11C02FB6D13443B667B6C582B02D06E
:1010D0007B6C782B1DD17B6C782B02D1002387F899
:1010E0004B307B681A1D7A601B683B6107F11C025C
:1010F00007F1100397F84B10009110461946002293
:101100001023FFF799FEF86507F11C02FB6D1344ED
:101110003B667B6C6F2B08D07B6C622B05D07B6CA5
:10112000702B02D07B6C752B59D17B681A1D7A60AD
:101130001B683B617B6C623B132B3BD801A252F8CE
:1011400023F000BF9D110000B5110000B511000093
:10115000B5110000B5110000B5110000B511000077
:10116000B5110000B5110000B5110000B511000067
:10117000B5110000B511000095110000A511000087
:10118000B5110000B5110000B5110000B511000047
:10119000AD110000082387F84A300CE0022387F8DD
:1011A0004A3008E0102387F84A3004E00A2387F821
:1011B0004A3000E000BF97F84A3007F11C0107F100
:1011C000100297F84B000090084611460022FFF7E6
:1011D00033FEF86507F11C02FB6D13443B667A6D24
:1011E00007F11803F96800912020F96DFFF704FE5C
:1011F0003B6E002B0FD00AE03B6E5A1E3A661B78FE
:101200005AB2FB6810469847BB690133BB613B6E1D
:101210001B78002BF0D140E07B6C632B0DD17B68F9
:101220001A1D7A601B68DBB25BB23B64FB68386CEA
:101230009847BB690133BB612FE07B6C732B26D1D0
:101240007B681A1D7A601B68FB64FB6C002B24D042
:10125000F86C02F0A1F90346FB657A6D07F11803FB
:10126000F96800912020F96DFFF7C6FD0AE0FB6CDC
:101270005A1CFA641B785AB2FB6810469847BB693F
:101280000133BB61FB6C1B78002BF0D105E0FB68E0
:10129000786C9847BB690133BB617B6E01337B6619
:1012A0007B6E1B785BB27B647B6C002B7FF464AE3F
:1012B000BB6918466837BD4680BD00BF80B483B0A7
:1012C00000AF786039607B683A68C3F8A0200C37BB
:1012D000BD465DF8047B704780B582B000AF002347
:1012E000FB71FB7906481946FFF74AFDFB7901338C
:1012F000FB714FF4FA504FF0000100F02DFAF0E7C7
:10130000AC35000080B582B000AF0023FB71FB79E3
:1013100006481946FFF734FDFB790133FB714FF4A2
:101320007A704FF0000100F017FAF0E7CC350000BA
:1013300080B582B000AF0023FB71FB7906481946E7
:10134000FFF71EFDFB790133FB714FF47A504FF02C
:10135000000100F001FAF0E7EC35000080B582B042
:1013600000AF0023FB71FB7904481946FFF708FD25
:1013700000F01AFAFB790133FB71F4E70C36000038
:1013800080B582B000AF0023FB71FB790448194699
:10139000FFF7F6FC00F008FAFB790133FB71F4E784
:1013A0002C36000080B500AF06484021FFF786FFCD
:1013B0000548FFF7E5FC054B1B785BB2184600F0CB
:1013C000FFFA80BD00B0044090360000FC13FF1F00
:1013D00080B500AF02F05EF801F0F6FF01F0A8FF63
:1013E00000F07EFC00F096FC26480121002200F06F
:1013F00037F903461A46244B1A702448022100226A
:1014000000F02EF903461A46214B1A702148032199
:10141000002200F025F903461A461F4B1A701F4898
:101420000521012200F01CF903461A461C4B1A70D4
:101430001C480421012200F013F903461A461A4BF6
:101440001A70194B1B78DBB241F2941000211A4636
:10145000002300F0BDF903461A46144B1A70104BD6
:101460001B78DBB240F6B83001211A46012300F0A8
:10147000AFF903461A460E4B1A7000F0CFF800BFC2
:10148000FDE700BFD91200000114FF1F0513000083
:10149000FD13FF1F311300000014FF1F5D13000038
:1014A0000214FF1F81130000FF13FF1FFE13FF1F15
:1014B000FC13FF1F80B483B000AF0346FB71084BE1
:1014C00097F907205209F97901F01F01012000FA6C
:1014D00001F143F822100C37BD465DF8047B7047DC
:1014E00000E100E080B483B000AF03463960FB71D7
:1014F00097F90730002B0BDA0D49FB7903F00F0346
:10150000043B3A68D2B21201D2B20B441A7609E017
:10151000084997F907303A68D2B21201D2B20B44A7
:1015200083F800230C37BD465DF8047B704700BF8D
:1015300000ED00E000E100E080B485B000AF78602D
:101540007B681B0C03F1804303F58E23FB60FB6873
:10155000FA6811687A6892B2012000FA02F20A432E
:101560001A601437BD465DF8047B704780B485B0BF
:1015700000AFF860B9601346FB71FB79002B05D111
:10158000BB6801229A40FB689A6004E0BB680122B4
:101590009A40FB685A601437BD465DF8047B70477B
:1015A00080B586B000AFF860B9607A607B68002BC8
:1015B00006D109484FF48171084A094B01F066F8D9
:1015C000BB689B00FA6813447B617B697A68128868
:1015D0001A801837BD4680BDA83600008042000042
:1015E000C036000080B485B000AFF860B960134623
:1015F000FB71FB68BA6853F8223023F47022FB7940
:101600001B0403F4702342EA0301FB68BA6843F841
:1016100022101437BD465DF8047B704780B500AFDB
:1016200000F08AFB0B4B03F592514FF000024FF094
:101630000003C1E90023074BFF225A70064800212E
:10164000002200F00DF8054B07221A6000F0D0F9D7
:10165000FEE700BFB000FF1F411C000010E000E0EB
:1016600080B485B000AF786013460A46FA70BB704C
:10167000384B1B78092B02D9FF23FB7362E0354BF3
:101680001B781A46BB78002B01D1002300E003230E
:1016900030494FF4D47000FB02F20A440832537010
:1016A0002C4B1B782B4A4FF4D47101FB03F31344EA
:1016B0000833FA781A70274B1B78264A12784FF4B1
:1016C000D47101FB02F202F5C671224A0A44214993
:1016D0004FF4D47000FB03F30B4408335A601D4BE6
:1016E0001B787A681B4901334FF4D47000FB03F375
:1016F0000B441A60174B1B78164A4FF4D47101FB48
:1017000003F3134403F5D6734FF080721A60114B44
:101710001B78104A4FF4D47101FB03F3134403F117
:1017200018014FF000024FF00003C1E90023094BFC
:101730001B780133DAB2074B1A70064B1B78013B5A
:10174000DBB2FB73FB7B5BB218461437BD465DF81A
:10175000047B7047B000FF1F80B582B000AFC7E9BF
:101760000001104B5B785BB20E4A4FF4D47101FB61
:1017700003F31344083302225A700A4B5B785BB2BE
:10178000084A4FF4D47101FB03F3134403F1180129
:10179000D7E90023C1E90023012000F065F90837EB
:1017A000BD4680BDB000FF1F80B500AF074B5B7822
:1017B0005BB2064A4FF4D47101FB03F313440833C0
:1017C00003225A70012000F04FF980BDB000FF1FC6
:1017D00080B485B000AF7860F970BA707B702A4B26
:1017E0001B78042B02D9FF23FB7345E0264B1B78A3
:1017F0001A46254913465B0013449B000B440833EB
:10180000FA781A71204B1B781A461F4913465B0061
:1018100013449B000B447A685A601B4B1B781A4692
:10182000194913465B0013449B000B447A689A6085
:10183000154B1B781A46B978134813465B001344BE
:101840009B00034408330A465A710F4B1B781A4613
:101850000D4913465B0013449B000B4408337A7810
:101860009A71094B1B780133DAB2074B1A70064B99
:101870001B78013BDBB2FB73FB7B5BB21846143772
:10188000BD465DF8047B7047F812FF1F80B582B03B
:1018900000AF0023FB7151E0FA792C4913465B003D
:1018A00013449B000B4408331B79002B43D1FA7976
:1018B000264913465B0013449B000B445B68591E8A
:1018C000224813465B0013449B0003445960FA7995
:1018D0001E4913465B0013449B000B445B68002BBE
:1018E00029D1FB795BB2184600F032F8FA79F97920
:1018F00016480B465B000B449B0003449968134851
:1019000013465B0013449B0003445960FA790F4966
:1019100013465B0013449B000B4408339B79012B57
:1019200009D1FA79094913465B0013449B000B4423
:10193000083301221A71FB790133FB71034B1B78C9
:10194000FA799A42A8D30837BD4680BDF812FF1F26
:1019500080B584B000AF0346FB7197F907201549A5
:1019600013465B0013449B000B4408331B79002B88
:101970001CD197F907200F4913465B0013449B00C5
:101980000B4408335B79FB7397F90F300A4A4FF425
:10199000D47101FB03F31344083300225A7097F902
:1019A0000F30013305481946FFF7EAF91037BD46F5
:1019B00080BD00BFF812FF1FB000FF1FC836000037
:1019C00080B483B000AF0346FB7197F90720074945
:1019D00013465B0013449B000B44083300221A712A
:1019E0000C37BD465DF8047B704700BFF812FF1F3F
:1019F0002DE9F84F00AF1A4E00F096FB034618464B
:101A00004FF0000102460B464FEA830B4BEA927BF4
:101A10004FEA820A52465B465D0145EAD2655401AF
:101A2000A41A65EB0305241845EB01054FEAC50927
:101A300049EA54794FEAC40844464D4622462B46AB
:101A400010461946074A4FF00003FEF739FE0246DA
:101A50000B4613467360024B00229A60BDE8F88F74
:101A600010E000E040420F0080B485B000AF0346B4
:101A7000FB71FF23BB73484B1B787B730023FB7305
:101A80003AE0FB7B444A4FF4D47101FB03F3134467
:101A900008331B781A4697F90E309A4229DDFB7BF2
:101AA0003D4A4FF4D47101FB03F3134408335B78D0
:101AB000002B0AD0FB7B384A4FF4D47101FB03F3AF
:101AC000134408335B78012B13D1FB7B324A4FF46C
:101AD000D47101FB03F3134408331B781A4697F9BA
:101AE0000E309A42D4BF00230123DBB2BB73FB7BD1
:101AF0007B73FB7B0133FB73274B1B78FA7B9A428A
:101B0000BFD37A7B244B9A70234B9A78224B5B7815
:101B100052B25BB29A423AD0FB793B731F4B1B78AF
:101B2000002B2BD138461C4B5B785BB202461A491E
:101B30004FF4D47000FB03F30B4408335A60164B88
:101B40005B7858B2144B5B785BB2134A4FF4D47194
:101B500001FB03F3134408335A683B7B012B02D18A
:101B60006FF0230300E01C231A440B494FF4D47395
:101B700003FB00F30B4408335A6002E0074B0022DA
:101B80001A70074B064A526842F080525A60143766
:101B9000BD465DF8047B7047B000FF1F0800FF1FC3
:101BA00000ED00E090B482B000AF0023FB713BE099
:101BB000FB79224A4FF4D47101FB03F31344083339
:101BC0005B78022B2DD1F9791C4A4FF4D47303FBB7
:101BD00001F313441833D3E9002312F1FF3243F128
:101BE000FF3316484FF4D47404FB01F1014418315B
:101BF000C1E90023FB79114A4FF4D47101FB03F3CF
:101C000013441833D3E9002352EA030109D1FB79C5
:101C10000A4A4FF4D47101FB03F313440833002242
:101C20005A70FB790133FB71044B1B78FA799A42A5
:101C3000BED30837BD4690BC704700BFB000FF1F41
:101C400080B400AF00BFFDE780B500AF0C4B03F5DB
:101C50009253D3E90023013243F10003084901F50F
:101C60009251C1E9002300F08FF8FFF79BFFFFF7C7
:101C7000BFFEFFF70BFE0020FFF7F6FE80BD00BFA2
:101C8000B000FF1F80B400AF134B134A526842F0FC
:101C900000625A60114B9A78104B5A700F4B5B7868
:101CA0005BB20E4A4FF4D47101FB03F313440833C3
:101CB00001225A70094B5B785BB2084A4FF4D47129
:101CC00001FB03F3134408335B6818460746BD461F
:101CD0005DF8047B704700BF00ED00E0B000FF1F1F
:101CE00080B500AF0648FFF727FC06480621064AE4
:101CF000FFF756FC05480621054A00F02BFF80BD82
:101D00000B00381000B004400000FF1F80F00F40AF
:101D10000400FF1F80B500AF3D20FFF7CBFB3D2047
:101D20000521FFF7DFFB034806210A22FFF75AFCD3
:101D300080BD00BF00B0044080B582B000AF0E4A45
:101D40003B1D12881A8000233B807B78012262F3BE
:101D500002037B700948FFF7EFFB3B4608481A2156
:101D60001A46FFF71DFC3B1D06481A211A4600F0D3
:101D7000F1FE0837BD4680BD043700000D00381065
:101D800000D0044000F10F402DE9F84F00AF2A4E7B
:101D900000F0CAF9034618464FF0000102460B4610
:101DA0004FEA830B4BEA927B4FEA820A52465B462C
:101DB0005D0145EAD2655401A41A65EB03052418B8
:101DC00045EB01054FEAC50949EA54794FEAC408D1
:101DD00044464D4622462B4610461946174A4FF0B8
:101DE0000003FEF76DFC02460B4613467360124B70
:101DF00000229A60124B1A6840F2F3139A4214D1EF
:101E0000104B1B7810481A211A46FFF7AFFB0D4BF9
:101E10001B78002B14BF00230123DBB21A46094BA9
:101E20001A70074B00221A6004E0054B1B685A1C0D
:101E3000034B1A60BDE8F88F10E000E040420F004D
:101E40004413FF1F4813FF1F00F10F4080B483B0FD
:101E500000AF7860074B074A126822F440217A6885
:101E6000920402F440220A431A600C37BD465DF822
:101E7000047B70470070044080B483B000AF78608A
:101E80000A490A4B03F5805304331B6823F440329C
:101E90007B681B0403F440331A4301F58053043379
:101EA0001A600C37BD465DF8047B70470070044033
:101EB00080B485B000AF786039607B681B78FB73B5
:101EC000FB7B03F05F03FB733B681A78FB7B1343D8
:101ED000FB737B68FA7B1A701437BD465DF8047B90
:101EE000704700BF80B485B000AF78600B46FB70D0
:101EF0007B681B78FB73FB7B23F00F03FB73FA7B80
:101F0000FB781343FB737B68FA7B1A701437BD466A
:101F10005DF8047B704700BF80B582B000AF194BFD
:101F20001B7BDBB203F00303012B12D0012B02D386
:101F3000022B1CD01EE0144B1B68002B05D113484C
:101F4000E821134A134B00F0A1FB0F4B1B687B6089
:101F500013E0114B1B68002B05D10C48ED210C4AF6
:101F60000E4B00F093FB0C4B1B687B6005E00C4BA9
:101F70007B6002E000237B6000BF7B681846083767
:101F8000BD4680BD004006400814FF1F0837000012
:101F900094420000203700000414FF1F2C3700007B
:101FA000006CDC0280B582B000AFFFF7B5FF78604F
:101FB0007B68002B01D17B684EE0294B1B78DBB29C
:101FC00003F03803DB08FB70FB787A6822FA03F32E
:101FD0007B60234B5B78DBB203F030031B09BB70E3
:101FE0001F4B1B7BDBB203F003037B70BB78002B22
:101FF00002D07B78002B02D07B78022B2BD1FB7890
:10200000072B25D801A151F823F000BF2D20000097
:102010002D2000002D2000002D2000002D2000008C
:102020002D20000035200000432000007B685B0964
:102030007B6010E07A680B4BA3FB02131B097B60EB
:1020400009E07A68084BA3FB0213DB087B6002E01F
:1020500000237B6000BF7B6818460837BD4680BD03
:1020600000400640CDCCCCCCABAAAAAA80B400AF2D
:102070000C4B9B79DBB203F00103002B02D10A4B1E
:102080001B6809E0094B1A68064B1B7ADBB203F0A8
:102090000E035B0822FA03F31846BD465DF8047B85
:1020A000704700BF004006400C00FF1F1000FF1FDC
:1020B00080B500AF074B9B79DBB203F010031B091F
:1020C000002B03D1FFF76EFF034601E0024B1B68B4
:1020D000184680BD004006400C00FF1F80B500AFD1
:1020E000FFF71AFF0346184680BD00BF80B485B0D5
:1020F00000AF78607A6849F697039A4202D80023C5
:10210000FB7308E07A68074B9A4202D80123FB73FD
:1021100001E00223FB73FB7B18461437BD465DF8D4
:10212000047B704700127A0080B500AF00F028F8F9
:102130000246054B03F5825304331B681B0F013322
:10214000B2FBF3F3184680BD0070044080B582B046
:1021500000AF7860094B7A68526803F58253043304
:102160001A607B681B781846FFF786FE7B685B78F1
:102170001846FFF76BFE0837BD4680BD007004406F
:1021800080B582B000AF164B9B79DBB203F00C0335
:102190009B083B603B68032B1AD801A252F823F03E
:1021A000B9210000C1210000C9210000B1210000B7
:1021B00000F052F878600EE000F014F878600AE061
:1021C000FFF754FF786006E0FFF7A6FE786002E0B4
:1021D00000237B6000BF7B6818460837BD4680BD82
:1021E0000040064080B582B000AF194B5B78DBB28F
:1021F00003F00203002B06D1154B9B79DBB203F0F1
:102200002003002B01D000231DE0FFF751FF786071
:102210007B68002B01D17B6815E00D4BDB78DBB2CE
:1022200003F060035B09FB70094BDB78DBB2DB0971
:10223000BB70F978BA78074B49000A4433F812307A
:102240007A6802FB03F318460837BD4680BD00BF1D
:1022500000400640AC42000080B582B000AF184B91
:102260009B79DBB203F04003002B01D1002322E075
:10227000FFF734FF78607B68002B06D111484FF4DC
:102280002171114A114B00F001FA0D4B1B79DBB2A1
:1022900003F01F0301337A68B2FBF3F37B60084B52
:1022A0005B79DBB203F01F0303F118027B6802FBCA
:1022B00003F37B607B6818460837BD4680BD00BFCE
:1022C0000040064008370000BC4200003C370000D8
:1022D00080B485B000AF0346FB71174B1B7BDBB2AC
:1022E00003F00302FB799A4202D00123FB7301E061
:1022F0000023FB73104B104A127BD2B222F0030270
:10230000D1B2FA7902F00302D2B20A43D2B21A73FE
:10231000FB7B002B09D040F2DC53BB6000E000BF28
:10232000BB685A1EBA60002BF9D100231846143737
:10233000BD465DF8047B70470040064080B485B020
:1023400000AF13460246FA710A46BA717B713B4BE5
:102350009B79DBB203F00C039B08FB60374B9B7946
:10236000DBB203F00103FB72344B1B7ADBB203F0E8
:102370000E035B08BB727A79BB7A9A422CD0FB7A47
:10238000012B19D1FB68012B06D02C4B1B78DBB23B
:1023900003F00203002B0FD0284B284A5278D2B208
:1023A00022F00102D2B25A7000BF244B9B79DBB2FB
:1023B00003F00103002BF8D1204B204A127AD2B24D
:1023C00022F02F02D1B27A795200D2B202F00E027C
:1023D000D2B20A43D2B21A72184B184A5278D2B209
:1023E00022F00102D1B2BA7902F00102D2B20A435C
:1023F000D2B25A70114B114A1278D2B222F00302B3
:10240000D1B2FA790A43D2B21A70FB68012B04D018
:10241000FB7903F00203002B08D000BF074B9B7928
:10242000DBB203F00102BB799A42F7D100231846D0
:102430001437BD465DF8047B704700BF004006407E
:1024400080B584B000AF78607B68002B06D11D4852
:102450004FF451711C4A1D4B00F018F90023FB7317
:102460007B685B7803F01F03DAB2FB7B1343FB73DB
:10247000174BFA7B1A71164B154A5279D2B222F0D9
:102480001F02D1B27A68927802F01F02D2B20A43D8
:10249000D2B25A710E4B0E4A1279D1B27A681278C2
:1024A0000A43D2B242F04002D2B21A7100BF084BC6
:1024B0009B79DBB203F04003002BF8D01037BD4608
:1024C00080BD00BF08370000D04200004837000040
:1024D0000040064080B584B000AF78607B681B6820
:1024E0001846FFF703FE0346FB737B681B791A4807
:1024F0001946FFF7F7FC7B68063317481946FFF7C4
:10250000D7FC164B154A5278D2B222F03C02D1B217
:10251000FA7B1201D2B202F03002D2B20A43D1B237
:102520007A6852790A43D2B25A707B685B79002B81
:102530000ED0094B1B78DBB2DBB25BB2002B07DAA3
:1025400000BF064B9B79DBB203F00203002BF8D0EF
:102550001037BD4680BD00BF005006400040064019
:1025600080B582B000AF03463960FB713B68002B39
:1025700006D125484FF4BA61244A254B00F086F86D
:10258000244B244A5278D2B222F00202D2B25A70BC
:10259000204B204A1278D2B202F03B02D2B262F053
:1025A0007F02D2B21A7000BF1A4B9B79DBB203F0E4
:1025B0001C03082BF8D1174B164A5279D2B222F0DD
:1025C0004002D2B25A7100BF124B9B79DBB203F0CA
:1025D0002003002BF8D13868FFF732FF0D4B0D4A6E
:1025E0005279D2B242F04002D2B25A7100BF094BC6
:1025F0009B79DBB203F02003002BF8D000231846B0
:102600000837BD4680BD00BF08370000E442000027
:10261000483700000040064080B582B000AF0B464E
:102620003A600246FA71BB713B68002B06D1134831
:1026300040F27A61124A134B00F028F8FB791846F1
:10264000FFF746FEBB7918463968FFF789FF0E4B46
:102650000D4A1278D2B202F03F02D2B21A7000BF15
:10266000094B9B79DBB203F00C039B08032BF7D1DA
:10267000002318460837BD4680BD00BF083700005C
:10268000F8420000483700000040064080B586B0A0
:1026900002AFF860B9607A603B607B6800930448E1
:1026A0003968FA68BB68FEF76BFB00BEFDE700BF48
:1026B0005037000080B483B000AF78607B681B683F
:1026C000DB0FDBB218460C37BD465DF8047B704764
:1026D00080B582B000AF786039607868FFF7EAFFB4
:1026E0000346002B05D0074B1B687868396898476C
:1026F00004E0054B1B687868396898470837BD4681
:1027000080BD00BF5813FF1F5C13FF1F80B500AFD3
:10271000084B1B68002B06D1074840F25661074A58
:10272000074BFFF7B3FF034B1B6806481946FFF73B
:10273000CFFF80BD4C13FF1F903700000C430000FB
:102740000C38000000C0024080B500AF084B5B6849
:10275000002B06D1074840F25E61074A074BFFF79E
:1027600095FF034B5B6806481946FFF7B1FF80BD34
:102770004C13FF1F90370000244300001C3800005A
:1027800000D0024080B500AF084B9B68002B06D1FB
:10279000074840F26661074A074BFFF777FF034B94
:1027A0009B6806481946FFF793FF80BD4C13FF1F37
:1027B000903700003C4300002C38000000C00A4065
:1027C00090B589B000AF78607B68002B06D1504887
:1027D00040F235314F4A504BFFF758FF7B689B68FA
:1027E0007A68127CDA777B68DB68002B0DD17B6816
:1027F0001B68002B09D07B681C687B685B68786865
:10280000194601220023A0477EE07B689A687B6816
:102810001B7C5B01134403F5805318331B687B61F9
:102820007B689A687B681B7C5B01134403F58053CB
:1028300018339B889BB203F08003002B0CBF00234E
:102840000123FB747B68DB687A69D31A7B617B693F
:102850005B09FB60FB7C002B02D0FB68FB760EE083
:10286000FB68002B04D0FB68DBB2013BDBB205E068
:102870007B681B7DDBB2DBB2013BDBB2FB76FA7E11
:102880007B685B7CDBB25BB29A4212D17B68DB7CFB
:10289000DAB27B681B7DDBB252B25BB29A4205D1E1
:1028A0007B68DB7CDBB25BB2FB6113E00023FB6186
:1028B00010E0FA7E7B685B7CDBB25BB2D31AFB6113
:1028C000FB69002B06DA7B681B7DDBB25BB2FA6921
:1028D0001344FB61FA7E7B685A747B68DB7CDBB255
:1028E000DAB2FB69DBB2D31ADBB2DAB27B68DA7434
:1028F0007B681B68002B07D07B681C687B68596865
:10290000FB69FA7C7868A0472437BD4690BD00BFBC
:102910003C380000544300003439000080B500AF5B
:10292000024B1B681846FFF74BFF80BD6013FF1F6B
:1029300080B500AF024B5B681846FFF741FF80BDD2
:102940006013FF1F80B500AF024B9B681846FFF76E
:1029500037FF80BD6013FF1F80B500AF024BDB68FF
:102960001846FFF72DFF80BD6013FF1F80B500AF35
:10297000024B1B691846FFF723FF80BD6013FF1F42
:1029800080B500AF024B5B691846FFF719FF80BDA9
:102990006013FF1F80B500AF024B9B691846FFF71D
:1029A0000FFF80BD6013FF1F80B500AF024BDB69D6
:1029B0001846FFF705FF80BD6013FF1F80B500AF0D
:1029C000024B1B6A1846FFF7FBFE80BD6013FF1F1A
:1029D00080B500AF024B5B6A1846FFF7F1FE80BD81
:1029E0006013FF1F80B500AF024B9B6A1846FFF7CC
:1029F000E7FE80BD6013FF1F80B500AF024BDB6AAE
:102A00001846FFF7DDFE80BD6013FF1F80B500AFE5
:102A1000024B1B6B1846FFF7D3FE80BD6013FF1FF0
:102A200080B500AF024B5B6B1846FFF7C9FE80BD57
:102A30006013FF1F80B500AF024B9B6B1846FFF77A
:102A4000BFFE80BD6013FF1F80B500AF024BDB6B84
:102A50001846FFF7B5FE80BD6013FF1F80B500AFBD
:102A6000034B1B68034A126803481146984780BD10
:102A7000A413FF1FA013FF1F00000C4080B500AF80
:102A8000034B1B68034A126803481146984780BDF0
:102A9000A813FF1FA013FF1F00000C4080B500AF5C
:102AA000034B1B68034A126803481146984780BDD0
:102AB000AC13FF1FA013FF1F00000C4080B500AF38
:102AC000034B1B68034A126803481146984780BDB0
:102AD000B013FF1FA013FF1F00000C4080B500AF14
:102AE000094B1B68002B06D1084840F23C51084AAC
:102AF000084BFFF7CBFD084B1B68034A12680748D9
:102B00001146984780BD00BFB413FF1F803A0000F4
:102B100064430000683D0000B813FF1F00400240FE
:102B200080B485B000AFF860B9601346FB71FB79E3
:102B3000002B05D1BB6801229A40FB689A6004E033
:102B4000BB6801229A40FB685A601437BD465DF8A5
:102B5000047B704780B584B000AFF860B9607A60DC
:102B60007B68002B05D114484B21144A144BFFF706
:102B70008DFD7B681B78002B0AD1FB685A69BB6806
:102B8000012101FA03F3DB431A40FB685A610FE0AD
:102B90007B685B78F868B9681A46FFF7C1FFFB6885
:102BA0005A69BB68012101FA03F31A43FB685A61B1
:102BB0001037BD4680BD00BF7C3D00007C43000057
:102BC000B83D000080B582B000AF786039607B68A6
:102BD000DB78DBB203F01003002B06D17B689B7817
:102BE000DBB203F02003002B05D0084B1B6878688C
:102BF0003968984704E0064B1B687868396898473D
:102C0000BFF34F8F0837BD4680BD00BFC813FF1FFD
:102C1000CC13FF1F80B500AF034B1B680348194658
:102C2000FFF7D0FF80BD00BFBC13FF1F0060064050
:102C300080B500AF034B5B6803481946FFF7C2FF3E
:102C400080BD00BFBC13FF1F0070064080B500AF01
:102C5000034B9B6803481946FFF7B4FF80BD00BFD4
:102C6000BC13FF1F00600E4080B500AF094B1B680E
:102C7000002B06D1084840F22D41084A084BFFF7C7
:102C800005FD084B1B68034A126807481146984720
:102C900080BD00BF0C14FF1FC03D00008C4300002E
:102CA000043E0000D013FF1F00F0024080B500AFCB
:102CB000094B5B68002B06D1084840F23341084AB3
:102CC000084BFFF7E3FC084B1B68034A52680748B0
:102CD0001146984780BD00BF0C14FF1FC03D000087
:102CE000A8430000183E0000D413FF1F00F002406C
:102CF00080B500AF094B1B68002B06D1084840F295
:102D00008451084A084BFFF7C1FC084B1B68034A73
:102D1000126807481146984780BD00BFD813FF1FAF
:102D2000503E0000C443000044410000DC13FF1F7C
:102D300000100B4080B485B000AF78607B681B0C3E
:102D400003F1804303F58E23FB60FB68FA6811688A
:102D50007A6892B2012000FA02F20A431A6014372C
:102D6000BD465DF8047B704780B584B000AF7860E5
:102D70000623BB600023FB600AE00F4BFA6853F8A0
:102D800022207B689A4200D106E0FB680133FB6099
:102D9000FA68BB689A42F0D3FA68BB689A4205D3D6
:102DA0000648A921064A074BFFF770FCFB68184646
:102DB0001037BD4680BD00BFDC4300005441000019
:102DC0000C4400006C41000080B588B000AFF86092
:102DD000B9607A60BB68002B05D1A348D421A34A0F
:102DE000A34BFFF753FCBB681B68002B05D19E4823
:102DF000D5219E4A9F4BFFF749FCFA689E4B9A42A9
:102E000020D0FA689D4B9A421AD0FA689C4B9A429D
:102E100014D0FA689B4B9A420ED0FA689A4B9A42A9
:102E200008D0FA68994B9A4201D101230BE04FF088
:102E3000FF3308E0012306E0012304E0012302E060
:102E4000082300E00823BA689279934205DA86489D
:102E5000D721864A8E4BFFF719FCFA68864B9A42B7
:102E600020D0FA68854B9A421AD0FA68844B9A426D
:102E700014D0FA68834B9A420ED0FA68824B9A4279
:102E800008D0FA68814B9A4201D101230BE04FF040
:102E9000FF3308E0012306E0012304E0012302E000
:102EA000082300E00823BA68D279934205DA6E4815
:102EB000D8216E4A774BFFF7E9FB0023FB83002301
:102EC0007B770023BB61BB681B681B017A68B2FB80
:102ED000F3F3FB83FB8B002B01D10123FB83002346
:102EE0007B617B685A00BB681B68B2FBF3F39AB244
:102EF000FB8B1946C902CB1A5B019BB213447B8240
:102F00007B685A00FB8B59017B8A0B44B2FBF3F3BD
:102F10007B61BB681A687B699A4204D2BB681B68F4
:102F20007A69D31A03E0BB681A687B69D31ABB615C
:102F3000BB681A68584BA3FB02135A0913465B007F
:102F40001A44BB699A4202D240F2F53387E0F8682E
:102F5000FFF70AFF0246514B53F822301846FFF79D
:102F6000E9FEFB68DB78DBB223F00C03DAB2FB6826
:102F7000DA70FB681B78DBB223F01F03DAB2FB8B3D
:102F80001B0A9BB2DBB21343DAB2FB681A70FB8BED
:102F9000DAB2FB685A70FB689B7ADBB223F01F033E
:102FA000DAB27B8ADBB203F01F03DBB21343DAB27F
:102FB000FB689A72FB689B78DBB223F013037B7784
:102FC000BB681B79002B07D0BB681A797B7F134342
:102FD000DBB243F010037B77FB687A7F9A70FB6863
:102FE0001B78DBB223F02003DAB2BB685B795B01AC
:102FF000DBB203F02003DBB21343DAB2FB681A70D2
:10300000BB689A79FB68DA74BB68DA79FB685A7531
:10301000FB681B7CDBB263F07703DAB2FB681A74DF
:10302000FB685B7CDBB263F03F03DAB2FB685A7487
:10303000FB68DB787B77BB681B7A002B03D07B7F38
:1030400043F008037B77BB685B7A002B03D07B7F60
:1030500043F004037B77FB687A7FDA70002318461D
:103060002037BD4680BD00BF544100002044000011
:10307000904100009841000000A0064000B00640CA
:1030800000C0064000D0064000A00E4000B00E4038
:10309000B0410000F04100001F85EB51F4430000F7
:1030A00080B582B000AF78607B68002B06D11048F5
:1030B00040F25D110F4A104BFFF7E8FA7B684FF4BE
:1030C000E1321A607B6800221A717B6800225A7113
:1030D0007B6800229A717B680122DA717B6800228A
:1030E0001A727B6800225A720837BD4680BD00BF45
:1030F000544100002C4400009041000080B485B091
:1031000000AF78607B681B79DBB21A467B685B791D
:10311000DBB21B021343FB607B681B7BDBB21B042F
:10312000FA681343FB607B689B7CDBB21B06FA6882
:103130001343FB60FB6818461437BD465DF8047BFB
:10314000704700BF80B485B000AFF860B9607A60A6
:103150000DE000BFFB681B79DBB2DBB25BB2002B7A
:10316000F8DABB685A1CBA601A78FB68DA717B68B7
:103170005A1E7A60002BECD11437BD465DF8047BF3
:10318000704700BF80B586B000AFF860B9607A6064
:10319000BB68002B06D121484FF40F71204A214B08
:1031A000FFF774FA30E023E0F868FFF7A7FF7861D3
:1031B0007B6903F00803002B02D040F2F13329E0D1
:1031C0007B6903F00403002B02D040F2F23321E0CC
:1031D0007B6903F00203002B02D040F2F33319E0C5
:1031E0007B6903F00103002B02D04FF47D7311E0E3
:1031F000FB689B7DDBB2002BD6D0BB685A1CBA6043
:10320000FA68D279D2B21A707B685A1E7A60002BA3
:10321000C9D1002318461837BD4680BD544100006F
:10322000444400004042000080B500AF034B1B68DF
:10323000034A126803481146984780BDF813FF1FE0
:10324000E013FF1F00A0064080B500AFFFF7ECFFC2
:1032500080BD00BF80B500AF034B1B68034A5268B6
:1032600003481146984780BDF813FF1FE013FF1F66
:1032700000B0064080B500AFFFF7ECFF80BD00BF97
:1032800080B500AF034B1B68034A926803481146A0
:10329000984780BDF813FF1FE013FF1F00C00640D2
:1032A00080B500AFFFF7ECFF80BD00BF80B500AF79
:1032B000034B1B68034AD26803481146984780BDF8
:1032C000F813FF1FE013FF1F00D0064080B500AFCA
:1032D000FFF7ECFF80BD00BF80B500AF034B1B685C
:1032E000034A126903481146984780BDF813FF1F2F
:1032F000E013FF1F00A00E4080B500AFFFF7ECFF0A
:1033000080BD00BF80B500AF034B1B68034A526904
:1033100003481146984780BDF813FF1FE013FF1FB5
:1033200000B00E4080B500AFFFF7ECFF80BD00BFDE
:1033300080B582B000AFFEF7F7FE786004484FF426
:10334000E13101227B68FDF7D1FC0837BD4680BD25
:1033500000A0064080B400AF054B03F58253043350
:103360004FF092721A60BD465DF8047B704700BF53
:103370000070044080B483B000AF7860034B7A687B
:103380001A600C37BD465DF8047B70470814FF1FB8
:1033900080B483B000AF0346FB710A4B094A127830
:1033A000D2B222F03802D1B2FA79D200D2B202F00F
:1033B0003802D2B20A43D2B21A700C37BD465DF859
:1033C000047B70470040064080B500AFFFF7C2FFA6
:1033D0000F48FFF77FF80F4B1846FFF7CBFF02218E
:1033E00000220023084611461A46FEF7A7FF0023D5
:1033F0001846FFF7CDFF002318460021064AFFF7C5
:103400000BF90648FEF7A2FE054B064A1A6080BD7E
:103410006C44000080F0FA02604400006444000044
:103420001400FF1F000E270780B485B000AF78603E
:103430007B681B0C03F1804303F58E23FB60FB6864
:10344000FA6811687A6892B2012000FA02F20A431F
:103450001A601437BD465DF8047B704780B485B0B0
:1034600000AFF860B9601346FB71FB68BA6853F8A7
:10347000223023F4E062FB791B0203F4E06342EAAA
:103480000301FB68BA6843F822101437BD465DF8A3
:10349000047B704780B500AF0C48FFF7C5FF0C48B0
:1034A00010210322FFF7DAFF094811210322FFF759
:1034B000D5FF0849074B03F5805310331B6823F0F1
:1034C000030201F5805310331A6080BD0A003810E2
:1034D00000A004400070044080B400AF0B4B0B4AC6
:1034E000D2F8882042F47002C3F88820084B4CF2CE
:1034F0002052DA81064B4DF62812DA81044B4FF444
:10350000E9721A80BD465DF8047B704700ED00E06B
:103510000020054008B5074B044613B10021AFF366
:103520000080054B1868836A03B19847204600F075
:103530003BF800BF000000007844000070B50E4B5F
:103540000E4DED1AAD1000241E46AC4204D056F8C4
:10355000242090470134F8E700F090FF084D094B14
:10356000ED1AAD1000241E46AC4204D056F82420BB
:1035700090470134F8E770BD9C4400009C44000073
:10358000A04400009C44000002440346934202D041
:1035900003F8011BFAE77047034613F8012B002AD2
:1035A000FBD1181A01387047FEE700BF494E20547E
:1035B00041534B20313A202569202B2B2B2B2B2BD1
:1035C0002B2B2B2B2B2B2B2B2B0D0A00494E205456
:1035D00041534B20323A202569202A2A2A2A2A2AB6
:1035E0002A2A2A2A2A2A2A2A2A0D0A00494E20543F
:1035F00041534B20333A202569202D2D2D2D2D2D83
:103600002D2D2D2D2D2D2D2D2D0D0A00494E205403
:1036100041534B20343A202569202323232323239D
:103620002323232323232323230D0A00414C415228
:103630004D2031205472696767657265643A2025B0
:1036400064202F2A2F2A2F2A2F2A2F2A2F2A20724E
:103650006573657474696E672E2E2E0D0A00000066
:10366000414C41524D203220547269676765726542
:10367000643A232323232323232323232320726534
:1036800073657474696E672E2E2E0D0A000000009B
:10369000427574746F6E2070726573736564212156
:1036A0002121210D0A0000002E2E2F6472697665FB
:1036B00072732F66736C5F706F72742E68000000F7
:1036C000636F6E6669670000414C41524D20414373
:1036D0005449564154454420464F52205441534B7F
:1036E0002025640A0D000000425554544F4E2041DD
:1036F0004354495641544544205441534B2025647A
:103700000A0D0000010100002E2E2F6472697665FB
:1037100072732F66736C5F636C6F636B2E63000054
:10372000675F7874616C304672657100675F7874AA
:10373000616C333246726571000000006D63677022
:103740006C6C30636C6B0000636F6E6669670000C1
:10375000415353455254204552524F522022202566
:103760007320223A2066696C652022257322204C42
:10377000696E6520222564222066756E6374696F08
:103780006E206E616D652022257322200A000000E4
:103790002E2E2F647269766572732F66736C5F6468
:1037A0007370692E63000000696E7374616E6365E7
:1037B000203C2041525241595F53495A4528735F7A
:1037C0006473706942617365732900006D6173747D
:1037D0006572436F6E6669670000000066616C7316
:1037E00065000000736C617665436F6E6669670003
:1037F000636F6D6D616E640068616E646C6500007E
:103800007472616E7366657200000000675F6473B6
:10381000706948616E646C655B305D00675F6473FE
:10382000706948616E646C655B315D00675F6473ED
:10383000706948616E646C655B325D002E2E2F648A
:103840007269766572732F66736C5F65646D612E45
:1038500063000000696E7374616E6365203C2041F3
:10386000525241595F53495A4528735F65646D61EF
:1038700042617365732900006368616E6E656C2038
:103880003C2046534C5F464541545552455F4544A4
:103890004D415F4D4F44554C455F4348414E4E4569
:1038A0004C00000074636420213D204E554C4C00B8
:1038B000282875696E7433325F7429746364202616
:1038C00020307831465529203D3D20300000000051
:1038D000636F6E66696720213D204E554C4C000099
:1038E000282875696E7433325F74296E6578745454
:1038F0006364202620307831465529203D3D203014
:10390000000000006C696E6B65644368616E6E65F3
:103910006C203C2046534C5F464541545552455F10
:1039200045444D415F4D4F44554C455F4348414EE2
:103930004E454C0068616E646C6520213D204E55FB
:103940004C4C0000282875696E7433325F742974FA
:103950006364506F6F6C20262030783146552920E3
:103960003D3D2030000000007372634164647220AA
:10397000213D204E554C4C00646573744164647263
:1039800020213D204E554C4C0000000028737263EE
:103990005769647468203D3D20315529207C7C2086
:1039A000287372635769647468203D3D203255293D
:1039B000207C7C20287372635769647468203D3DC5
:1039C00020345529207C7C202873726357696474E5
:1039D00068203D3D2031365529207C7C202873729B
:1039E000635769647468203D3D20333255290000D7
:1039F00028646573745769647468203D3D203155AF
:103A000029207C7C2028646573745769647468205D
:103A10003D3D20325529207C7C20286465737457F5
:103A200069647468203D3D20345529207C7C202821
:103A3000646573745769647468203D3D2031365560
:103A400029207C7C2028646573745769647468201D
:103A50003D3D2033325529007472616E7366657284
:103A600042797465732025206279746573456163BA
:103A70006852657175657374203D3D20300000000B
:103A80002E2E2F647269766572732F66736C5F6673
:103A90006C657863616E2E6300000000696E73745C
:103AA000616E6365203C2041525241595F53495A2F
:103AB0004528735F666C657863616E4261736573F8
:103AC000290000006D62496478203C2046534C5F19
:103AD000464541545552455F464C455843414E5F1B
:103AE0004841535F4D4553534147455F4255464614
:103AF00045525F4D41585F4E554D4245526E2862CA
:103B000061736529000000002128626173652D3E04
:103B10004D435220262043414E5F4D43525F4D445A
:103B200049535F4D41534B290000000062617564A9
:103B3000526174655F427073203C3D2031303030FB
:103B40003030305500000000707269446976203CC6
:103B50003D20736F75726365436C6F636B5F487A6A
:103B600000000000636F6E666967000028636F6E77
:103B70006669672D3E6D61784D624E756D203E2001
:103B800030292026262028636F6E6669672D3E6DDA
:103B900061784D624E756D203C3D2046534C5F462A
:103BA0004541545552455F464C455843414E5F4848
:103BB00041535F4D4553534147455F425546464546
:103BC000525F4D41585F4E554D4245526E286261DD
:103BD00073652929000000006D61736B49647820CA
:103BE0003C3D2028626173652D3E4D4352202620C6
:103BF00043414E5F4D43525F4D41584D425F4D41F1
:103C0000534B29006D62496478203C3D2028626155
:103C100073652D3E4D435220262043414E5F4D4358
:103C2000525F4D41584D425F4D41534B29000000BA
:103C300021464C455843414E5F49734D624F636383
:103C4000757069656428626173652C206D624964D2
:103C5000782900002828636F6E66696729207C7CBC
:103C6000202866616C7365203D3D20656E61626C45
:103C70006529290028636F6E66696729207C7C208E
:103C80002866616C7365203D3D20656E61626C65E0
:103C900029000000636F6E6669672D3E696446699E
:103CA0006C7465724E756D203C3D203132380000D9
:103CB000282873657475705F6D62202D2038292067
:103CC0002D202832202A207266666E2929203E2067
:103CD0003000000074784672616D65007478467239
:103CE000616D652D3E6C656E677468203C3D2038C3
:103CF0000000000072784672616D650068616E6454
:103D00006C65000078666572000000007866657278
:103D10002D3E6D62496478203C3D202862617365C8
:103D20002D3E4D435220262043414E5F4D43525F6E
:103D30004D41584D425F4D41534B290021464C4562
:103D40005843414E5F49734D624F636375706965B7
:103D50006428626173652C20786665722D3E6D6201
:103D60004964782900000000735F666C65786361C0
:103D70006E48616E646C655B305D00002E2E2F64B2
:103D80007269766572732F66736C5F6770696F2EE8
:103D900063000000696E7374616E6365203C2041AE
:103DA000525241595F53495A4528735F6770696F92
:103DB0004261736573290000636F6E666967000076
:103DC0002E2E2F647269766572732F66736C5F7323
:103DD00061692E6300000000696E7374616E636533
:103DE000203C2041525241595F53495A4528735F44
:103DF00073616942617365732900000068616E64D4
:103E00006C650000735F73616948616E646C655B2B
:103E1000305D5B305D000000735F73616948616E07
:103E2000646C655B305D5B315D0000002E2E2F649D
:103E30007269766572732F66736C5F736468632E44
:103E400068000000696E646578203C2034550000ED
:103E50002E2E2F647269766572732F66736C5F7392
:103E60006468632E63000000696E7374616E63653D
:103E7000203C2041525241595F53495A4528735FB3
:103E800073646863426173652900000068616E6451
:103E90006C652D3E636F6D6D616E640068616E646C
:103EA0006C652D3E6461746100000000636F6E6696
:103EB00069670000636F6E6669672D3E646D614DD2
:103EC0006F646520213D206B534448435F446D611E
:103ED0004D6F646541646D613100000028636F6E51
:103EE0006669672D3E777269746557617465726D96
:103EF00061726B4C6576656C203E3D203155292002
:103F000026262028636F6E6669672D3E7772697476
:103F10006557617465726D61726B4C6576656C2076
:103F20003C3D2031323855290000000028636F6E77
:103F30006669672D3E7265616457617465726D6173
:103F4000726B4C6576656C203E3D203155292026EC
:103F5000262028636F6E6669672D3E72656164571F
:103F6000617465726D61726B4C6576656C203C3D69
:103F700020313238552900006361706162696C69D3
:103F800074790000737263436C6F636B5F487A20CF
:103F9000213D20305500000028627573436C6F632B
:103FA0006B5F487A20213D20305529202626202885
:103FB000627573436C6F636B5F487A203C3D20737E
:103FC0007263436C6F636B5F487A2900636F6E6640
:103FD00069672D3E64617461426C6F636B53697AEB
:103FE00065203C3D2028534448435F424C4B41549C
:103FF00054525F424C4B53495A455F4D41534B20FD
:104000003E3E20534448435F424C4B415454525F20
:10401000424C4B53495A455F534849465429000086
:10402000636F6E6669672D3E64617461426C6F6395
:104030006B436F756E74203C3D2028534448435FAA
:10404000424C4B415454525F424C4B434E545F4D93
:1040500041534B203E3E20534448435F424C4B412A
:104060005454525F424C4B434E545F53484946545C
:1040700029000000636F6E6669672D3E61636B54B3
:10408000696D656F7574436F756E74203C3D2028B3
:10409000534448435F4D4D43424F4F545F44544F48
:1040A000435641434B5F4D41534B203E3E205344CA
:1040B00048435F4D4D43424F4F545F44544F435626
:1040C00041434B5F5348494654290000636F6E6675
:1040D00069672D3E626C6F636B436F756E74203C35
:1040E0003D2028534448435F4D4D43424F4F545F5A
:1040F000424F4F54424C4B434E545F4D41534B2023
:104100003E3E20534448435F4D4D43424F4F545F22
:10411000424F4F54424C4B434E545F5348494654D0
:10412000290000007472616E736665720000000001
:1041300068616E646C65000063616C6C6261636BE6
:1041400000000000735F7364686348616E646C65AF
:104150005B305D002E2E2F647269766572732F6658
:10416000736C5F756172742E63000000696E737406
:10417000616E6365203C2075617274417272617971
:10418000436F756E7400000068616E646C650000BA
:10419000636F6E6669670000636F6E6669672D3EC8
:1041A00062617564526174655F4270730000000063
:1041B00046534C5F464541545552455F5541525414
:1041C0005F4649464F5F53495A456E2862617365A1
:1041D00029203E3D20636F6E6669672D3E747846E8
:1041E00069666F57617465726D61726B00000000E3
:1041F00046534C5F464541545552455F55415254D4
:104200005F4649464F5F53495A456E286261736560
:1042100029203E3D20636F6E6669672D3E727846A9
:1042200069666F57617465726D61726B00000000A2
:1042300062617564526174655F42707300000000D2
:10424000646174610000000072696E6742756666A1
:10425000657200007866657200000000786665721D
:104260002D3E6461746153697A65000078666572F9
:104270002D3E646174610000636F756E7400000010
:10428000504F52545F53657450696E436F6E666948
:1042900067000000434C4F434B5F4765744D6367B5
:1042A000457874436C6B4672657100008002DC02D5
:1042B0000005B80580079508000A710B434C4F4371
:1042C0004B5F476574506C6C30467265710000003E
:1042D000434C4F434B5F456E61626C65506C6C3074
:1042E00000000000434C4F434B5F536574506265C0
:1042F0004D6F646500000000434C4F434B5F426FBD
:104300006F74546F5065654D6F646500535049304C
:104310005F44726976657249525148616E646C659A
:1043200072000000535049315F44726976657249EA
:10433000525148616E646C657200000053504932FE
:104340005F44726976657249525148616E646C656A
:104350007200000045444D415F48616E646C6549E0
:104360005251000043414E305F4472697665724994
:10437000525148616E646C65720000004750494FAD
:104380005F50696E496E6974000000004932533015
:104390005F54785F44726976657249525148616E24
:1043A000646C657200000000493253305F52785FE0
:1043B00044726976657249525148616E646C6572E7
:1043C00000000000534448435F44726976657249B7
:1043D000525148616E646C657200000000A0064096
:1043E00000B0064000C0064000D0064000A00E40CD
:1043F00000B00E400A0034100B0034100C003410D2
:104400000D0034100A0028100B002810554152549A
:104410005F476574496E7374616E636500000000E8
:10442000554152545F496E69740000005541525421
:104430005F47657444656661756C74436F6E666949
:1044400067000000554152545F52656164426C6FD1
:10445000636B696E67000000070200000000000047
:1044600000131800010200000000240180F0FA028D
:1044700000008000430000001800FF1FF8B500BFD7
:10448000F8BC08BC9E467047F8B500BFF8BC08BC35
:044490009E4670478D
:08449400D0BFFF7F0100000012
:04449C0035040000E3
:0444A0001104000003
:1044A4000001000000010000010000000080000085
:1044B40000093D0000004001000000000000000071
:1044C40000000000000000000000000000000000E8
:1044D4000000000000000000744400000000000020
:1044E40000000000000000000000000000000000C8
:1044F40000000000000000000000000000000000B8
:1045040000000000000000000000000000000000A7
:0C4514000000000000000000000000009B
:04000003000004D91C
:00000001FF
